:0808E300080C040602030109E0
:0908D900010A000208F830C10018
:0508EB001208C880FEA8
:1008C800758901E508F58C85098AD2AFD2A9D28C41
:0108D80022FD
:03000B0002088C5C
:10088C00C0E0C083C082C0D0E508F58C85098AE53C
:10089C000A9008E393F5A0200004050A80053000B7
:1008AC0002150AE50AB40803750A00E50AB4FF0349
:0C08BC00750A07D0D0D082D083D0E03283
:03000000020800F3
:0C080000787FE4F6D8FD758120020847DF
:10080C000208EBE493A3F8E493A34003F68001F20F
:10081C0008DFF48029E493A3F85407240CC8C333ED
:10082C00C4540F4420C8834004F456800146F6DFBC
:10083C00E4800B01020408102040809008D9E47E6B
:10084C00019360BCA3FF543F30E509541FFEE493B1
:10085C00A360010ECF54C025E060A840B8E493A378
:10086C00FAE493A3F8E493A3C8C582C8CAC583CAA3
:10087C00F0A3C8C582C8CAC583CADFE9DEE780BE5B
:0108E2000015
:00000001FF
