:08093C00080C04060203010986
:09093200010A00C1800208000066
:1008C400120916D3E5099440E5086480949F400C0E
:1008D400B28CB28EC20075081F750940C3E5086466
:1008E40080948050DEB28CB28ED200E4F508F50913
:0208F40080D1B1
:10091600758911758CFC758A18D2AFD2A9D2ABD263
:0C092600A8D2AAD288D28AC28CC28E222B
:03000300020949A6
:03094900B20032C7
:030013000209449B
:05094400B28CB28E32FE
:03000B0002088C5C
:10088C00C0E0C083C082C0D0758CFC758A18E50AA4
:10089C0090093C93F5A030000C150AE50AB4FF0F43
:1008AC00750A07800A050AE50AB40803750A00D020
:0808BC00D0D082D083D0E032DD
:03001B000208F6E2
:1008F600C0E0758DFC758B1830000A0509E5097096
:100906000C05088008E509150970021508D0E032C3
:03000000020800F3
:0C080000787FE4F6D8FD758120020847DF
:10080C000208C4E493A3F8E493A34003F68001F236
:10081C0008DFF48029E493A3F85407240CC8C333ED
:10082C00C4540F4420C8834004F456800146F6DFBC
:10083C00E4800B0102040810204080900932E47E11
:10084C00019360BCA3FF543F30E509541FFEE493B1
:10085C00A360010ECF54C025E060A840B8E493A378
:10086C00FAE493A3F8E493A3C8C582C8CAC583CAA3
:10087C00F0A3C8C582C8CAC583CADFE9DEE780BE5B
:01093B0000BB
:00000001FF
